{
  "address": "0x5FbDB2315678afecb367f032d93F642f64180aa3",
  "abi": [
    {
      "inputs": [
        {
          "internalType": "string",
          "name": "newUri",
          "type": "string"
        }
      ],
      "stateMutability": "nonpayable",
      "type": "constructor"
    },
    {
      "inputs": [],
      "name": "ContractDoesNotAllowApprovals",
      "type": "error"
    },
    {
      "inputs": [],
      "name": "ContractDoesNotAllowTransfer",
      "type": "error"
    },
    {
      "inputs": [],
      "name": "NoTokenAvilable",
      "type": "error"
    },
    {
      "inputs": [],
      "name": "NotCreaterOfToken",
      "type": "error"
    },
    {
      "anonymous": false,
      "inputs": [
        {
          "indexed": true,
          "internalType": "address",
          "name": "account",
          "type": "address"
        },
        {
          "indexed": true,
          "internalType": "address",
          "name": "operator",
          "type": "address"
        },
        {
          "indexed": false,
          "internalType": "bool",
          "name": "approved",
          "type": "bool"
        }
      ],
      "name": "ApprovalForAll",
      "type": "event"
    },
    {
      "anonymous": false,
      "inputs": [
        {
          "indexed": true,
          "internalType": "address",
          "name": "by",
          "type": "address"
        },
        {
          "indexed": true,
          "internalType": "uint256",
          "name": "id",
          "type": "uint256"
        },
        {
          "indexed": false,
          "internalType": "address[]",
          "name": "to",
          "type": "address[]"
        }
      ],
      "name": "BunchCreated",
      "type": "event"
    },
    {
      "anonymous": false,
      "inputs": [
        {
          "indexed": true,
          "internalType": "address",
          "name": "account",
          "type": "address"
        },
        {
          "indexed": true,
          "internalType": "address",
          "name": "by",
          "type": "address"
        },
        {
          "indexed": true,
          "internalType": "uint256",
          "name": "id",
          "type": "uint256"
        }
      ],
      "name": "TokenBurned",
      "type": "event"
    },
    {
      "anonymous": false,
      "inputs": [
        {
          "indexed": true,
          "internalType": "address",
          "name": "operator",
          "type": "address"
        },
        {
          "indexed": true,
          "internalType": "address",
          "name": "from",
          "type": "address"
        },
        {
          "indexed": true,
          "internalType": "address",
          "name": "to",
          "type": "address"
        },
        {
          "indexed": false,
          "internalType": "uint256[]",
          "name": "ids",
          "type": "uint256[]"
        },
        {
          "indexed": false,
          "internalType": "uint256[]",
          "name": "values",
          "type": "uint256[]"
        }
      ],
      "name": "TransferBatch",
      "type": "event"
    },
    {
      "anonymous": false,
      "inputs": [
        {
          "indexed": true,
          "internalType": "address",
          "name": "operator",
          "type": "address"
        },
        {
          "indexed": true,
          "internalType": "address",
          "name": "from",
          "type": "address"
        },
        {
          "indexed": true,
          "internalType": "address",
          "name": "to",
          "type": "address"
        },
        {
          "indexed": false,
          "internalType": "uint256",
          "name": "id",
          "type": "uint256"
        },
        {
          "indexed": false,
          "internalType": "uint256",
          "name": "value",
          "type": "uint256"
        }
      ],
      "name": "TransferSingle",
      "type": "event"
    },
    {
      "anonymous": false,
      "inputs": [
        {
          "indexed": false,
          "internalType": "string",
          "name": "value",
          "type": "string"
        },
        {
          "indexed": true,
          "internalType": "uint256",
          "name": "id",
          "type": "uint256"
        }
      ],
      "name": "URI",
      "type": "event"
    },
    {
      "inputs": [
        {
          "internalType": "address",
          "name": "account",
          "type": "address"
        },
        {
          "internalType": "uint256",
          "name": "id",
          "type": "uint256"
        }
      ],
      "name": "balanceOf",
      "outputs": [
        {
          "internalType": "uint256",
          "name": "",
          "type": "uint256"
        }
      ],
      "stateMutability": "view",
      "type": "function"
    },
    {
      "inputs": [
        {
          "internalType": "address[]",
          "name": "accounts",
          "type": "address[]"
        },
        {
          "internalType": "uint256[]",
          "name": "ids",
          "type": "uint256[]"
        }
      ],
      "name": "balanceOfBatch",
      "outputs": [
        {
          "internalType": "uint256[]",
          "name": "",
          "type": "uint256[]"
        }
      ],
      "stateMutability": "view",
      "type": "function"
    },
    {
      "inputs": [
        {
          "internalType": "address",
          "name": "account",
          "type": "address"
        },
        {
          "internalType": "uint256",
          "name": "id",
          "type": "uint256"
        }
      ],
      "name": "burnToken",
      "outputs": [],
      "stateMutability": "nonpayable",
      "type": "function"
    },
    {
      "inputs": [
        {
          "internalType": "address[]",
          "name": "accounts",
          "type": "address[]"
        }
      ],
      "name": "createBunch",
      "outputs": [
        {
          "internalType": "uint256",
          "name": "",
          "type": "uint256"
        }
      ],
      "stateMutability": "nonpayable",
      "type": "function"
    },
    {
      "inputs": [
        {
          "internalType": "address[]",
          "name": "accounts",
          "type": "address[]"
        },
        {
          "internalType": "uint256",
          "name": "id",
          "type": "uint256"
        }
      ],
      "name": "createBunchWithId",
      "outputs": [],
      "stateMutability": "nonpayable",
      "type": "function"
    },
    {
      "inputs": [
        {
          "internalType": "uint256",
          "name": "id",
          "type": "uint256"
        }
      ],
      "name": "getCreatedBy",
      "outputs": [
        {
          "internalType": "address",
          "name": "",
          "type": "address"
        }
      ],
      "stateMutability": "view",
      "type": "function"
    },
    {
      "inputs": [],
      "name": "getNextTokenId",
      "outputs": [
        {
          "internalType": "uint256",
          "name": "",
          "type": "uint256"
        }
      ],
      "stateMutability": "view",
      "type": "function"
    },
    {
      "inputs": [
        {
          "internalType": "address",
          "name": "",
          "type": "address"
        },
        {
          "internalType": "address",
          "name": "",
          "type": "address"
        }
      ],
      "name": "isApprovedForAll",
      "outputs": [
        {
          "internalType": "bool",
          "name": "",
          "type": "bool"
        }
      ],
      "stateMutability": "pure",
      "type": "function"
    },
    {
      "inputs": [
        {
          "internalType": "address",
          "name": "",
          "type": "address"
        },
        {
          "internalType": "address",
          "name": "",
          "type": "address"
        },
        {
          "internalType": "uint256[]",
          "name": "",
          "type": "uint256[]"
        },
        {
          "internalType": "uint256[]",
          "name": "",
          "type": "uint256[]"
        },
        {
          "internalType": "bytes",
          "name": "",
          "type": "bytes"
        }
      ],
      "name": "safeBatchTransferFrom",
      "outputs": [],
      "stateMutability": "pure",
      "type": "function"
    },
    {
      "inputs": [
        {
          "internalType": "address",
          "name": "",
          "type": "address"
        },
        {
          "internalType": "address",
          "name": "",
          "type": "address"
        },
        {
          "internalType": "uint256",
          "name": "",
          "type": "uint256"
        },
        {
          "internalType": "uint256",
          "name": "",
          "type": "uint256"
        },
        {
          "internalType": "bytes",
          "name": "",
          "type": "bytes"
        }
      ],
      "name": "safeTransferFrom",
      "outputs": [],
      "stateMutability": "pure",
      "type": "function"
    },
    {
      "inputs": [
        {
          "internalType": "address",
          "name": "",
          "type": "address"
        },
        {
          "internalType": "bool",
          "name": "",
          "type": "bool"
        }
      ],
      "name": "setApprovalForAll",
      "outputs": [],
      "stateMutability": "pure",
      "type": "function"
    },
    {
      "inputs": [
        {
          "internalType": "bytes4",
          "name": "interfaceId",
          "type": "bytes4"
        }
      ],
      "name": "supportsInterface",
      "outputs": [
        {
          "internalType": "bool",
          "name": "",
          "type": "bool"
        }
      ],
      "stateMutability": "view",
      "type": "function"
    },
    {
      "inputs": [
        {
          "internalType": "uint256",
          "name": "",
          "type": "uint256"
        }
      ],
      "name": "uri",
      "outputs": [
        {
          "internalType": "string",
          "name": "",
          "type": "string"
        }
      ],
      "stateMutability": "view",
      "type": "function"
    }
  ],
  "transactionHash": "0xc7c3054dfb00849ef2ccad573cb928cbe03477f4ab371dc3013c63f71cd66c28",
  "args": [
    "localhost:4000/{id}"
  ],
  "numDeployments": 1,
  "solcInputHash": "3de460fc95026ba097bdc94f597a281f",
  "bytecode": "0x60806040523480156200001157600080fd5b5060405162001e2938038062001e29833981810160405281019062000037919062000185565b80600390805190602001906200004f92919062000057565b50506200035a565b82805462000065906200026b565b90600052602060002090601f016020900481019282620000895760008555620000d5565b82601f10620000a457805160ff1916838001178555620000d5565b82800160010185558215620000d5579182015b82811115620000d4578251825591602001919060010190620000b7565b5b509050620000e49190620000e8565b5090565b5b8082111562000103576000816000905550600101620000e9565b5090565b60006200011e6200011884620001ff565b620001d6565b9050828152602081018484840111156200013d576200013c6200033a565b5b6200014a84828562000235565b509392505050565b600082601f8301126200016a576200016962000335565b5b81516200017c84826020860162000107565b91505092915050565b6000602082840312156200019e576200019d62000344565b5b600082015167ffffffffffffffff811115620001bf57620001be6200033f565b5b620001cd8482850162000152565b91505092915050565b6000620001e2620001f5565b9050620001f08282620002a1565b919050565b6000604051905090565b600067ffffffffffffffff8211156200021d576200021c62000306565b5b620002288262000349565b9050602081019050919050565b60005b838110156200025557808201518184015260208101905062000238565b8381111562000265576000848401525b50505050565b600060028204905060018216806200028457607f821691505b602082108114156200029b576200029a620002d7565b5b50919050565b620002ac8262000349565b810181811067ffffffffffffffff82111715620002ce57620002cd62000306565b5b80604052505050565b7f4e487b7100000000000000000000000000000000000000000000000000000000600052602260045260246000fd5b7f4e487b7100000000000000000000000000000000000000000000000000000000600052604160045260246000fd5b600080fd5b600080fd5b600080fd5b600080fd5b6000601f19601f8301169050919050565b611abf806200036a6000396000f3fe608060405234801561001057600080fd5b50600436106100ce5760003560e01c8063a22cb4651161008c578063d1df306c11610066578063d1df306c14610249578063e985e9c514610265578063f242432a14610295578063ff46d1b6146102b1576100ce565b8063a22cb465146101df578063bc39a2e0146101fb578063caa0f92a1461022b576100ce565b8062fdd58e146100d357806301ffc9a7146101035780630e89341c146101335780632eb2c2d6146101635780634e1273f41461017f5780636bc61715146101af575b600080fd5b6100ed60048036038101906100e8919061111d565b6102cd565b6040516100fa9190611566565b60405180910390f35b61011d6004803603810190610118919061127a565b6103b4565b60405161012a91906114e9565b60405180910390f35b61014d600480360381019061014891906112a7565b610496565b60405161015a9190611504565b60405180910390f35b61017d60048036038101906101789190610f77565b61052a565b005b610199600480360381019061019491906111a6565b61055c565b6040516101a691906114c7565b60405180910390f35b6101c960048036038101906101c4919061115d565b610675565b6040516101d69190611566565b60405180910390f35b6101f960048036038101906101f491906110dd565b610844565b005b610215600480360381019061021091906112a7565b610876565b604051610222919061148a565b60405180910390f35b6102336108b3565b6040516102409190611566565b60405180910390f35b610263600480360381019061025e919061111d565b6108bd565b005b61027f600480360381019061027a9190610f37565b610ab3565b60405161028c91906114e9565b60405180910390f35b6102af60048036038101906102aa9190611046565b610abb565b005b6102cb60048036038101906102c6919061121e565b610aed565b005b60008073ffffffffffffffffffffffffffffffffffffffff168373ffffffffffffffffffffffffffffffffffffffff16141561033e576040517f08c379a000000000000000000000000000000000000000000000000000000000815260040161033590611526565b60405180910390fd5b60008083815260200190815260200160002060008473ffffffffffffffffffffffffffffffffffffffff1673ffffffffffffffffffffffffffffffffffffffff16815260200190815260200160002060009054906101000a900460ff166103a65760006103a9565b60015b60ff16905092915050565b60007fd9b67a26000000000000000000000000000000000000000000000000000000007bffffffffffffffffffffffffffffffffffffffffffffffffffffffff1916827bffffffffffffffffffffffffffffffffffffffffffffffffffffffff1916148061047f57507f0e89341c000000000000000000000000000000000000000000000000000000007bffffffffffffffffffffffffffffffffffffffffffffffffffffffff1916827bffffffffffffffffffffffffffffffffffffffffffffffffffffffff1916145b8061048f575061048e82610ccd565b5b9050919050565b6060600380546104a5906117fd565b80601f01602080910402602001604051908101604052809291908181526020018280546104d1906117fd565b801561051e5780601f106104f35761010080835404028352916020019161051e565b820191906000526020600020905b81548152906001019060200180831161050157829003601f168201915b50505050509050919050565b6040517f0bfcf07c00000000000000000000000000000000000000000000000000000000815260040160405180910390fd5b606081518351146105a2576040517f08c379a000000000000000000000000000000000000000000000000000000000815260040161059990611546565b60405180910390fd5b6000835167ffffffffffffffff8111156105bf576105be611936565b5b6040519080825280602002602001820160405280156105ed5781602001602082028036833780820191505090505b50905060005b845181101561066a5761063a85828151811061061257610611611907565b5b602002602001015185838151811061062d5761062c611907565b5b60200260200101516102cd565b82828151811061064d5761064c611907565b5b6020026020010181815250508061066390611860565b90506105f3565b508091505092915050565b60008033905060005b835181101561076d57600073ffffffffffffffffffffffffffffffffffffffff168482815181106106b2576106b1611907565b5b602002602001015173ffffffffffffffffffffffffffffffffffffffff161461075a57600160008060025481526020019081526020016000206000868481518110610700576106ff611907565b5b602002602001015173ffffffffffffffffffffffffffffffffffffffff1673ffffffffffffffffffffffffffffffffffffffff16815260200190815260200160002060006101000a81548160ff0219169083151502179055505b808061076590611860565b91505061067e565b508060016000600254815260200190815260200160002060006101000a81548173ffffffffffffffffffffffffffffffffffffffff021916908373ffffffffffffffffffffffffffffffffffffffff1602179055506002548173ffffffffffffffffffffffffffffffffffffffff167f673864e596773090d62c052fdb2ffb119cf5ae44633503838b1f77dc9ba9f9978560405161080b91906114a5565b60405180910390a360016002600082825461082691906116bd565b92505081905550600160025461083c9190611713565b915050919050565b6040517f8ec20b2300000000000000000000000000000000000000000000000000000000815260040160405180910390fd5b60006001600083815260200190815260200160002060009054906101000a900473ffffffffffffffffffffffffffffffffffffffff169050919050565b6000600254905090565b33816001600082815260200190815260200160002060009054906101000a900473ffffffffffffffffffffffffffffffffffffffff1673ffffffffffffffffffffffffffffffffffffffff168273ffffffffffffffffffffffffffffffffffffffff1614610957576040517f4403e92200000000000000000000000000000000000000000000000000000000815260040160405180910390fd5b60008084815260200190815260200160002060008573ffffffffffffffffffffffffffffffffffffffff1673ffffffffffffffffffffffffffffffffffffffff16815260200190815260200160002060009054906101000a900460ff166109ea576040517faa148fc000000000000000000000000000000000000000000000000000000000815260040160405180910390fd5b600080600085815260200190815260200160002060008673ffffffffffffffffffffffffffffffffffffffff1673ffffffffffffffffffffffffffffffffffffffff16815260200190815260200160002060006101000a81548160ff021916908315150217905550823373ffffffffffffffffffffffffffffffffffffffff168573ffffffffffffffffffffffffffffffffffffffff167fbfa41556980d157c24e8632dbb78958f8759a86b4acdea421f93dc7259fb55db60405160405180910390a450505050565b600092915050565b6040517f0bfcf07c00000000000000000000000000000000000000000000000000000000815260040160405180910390fd5b33816001600082815260200190815260200160002060009054906101000a900473ffffffffffffffffffffffffffffffffffffffff1673ffffffffffffffffffffffffffffffffffffffff168273ffffffffffffffffffffffffffffffffffffffff1614610b87576040517f4403e92200000000000000000000000000000000000000000000000000000000815260040160405180910390fd5b60005b8451811015610c7757600073ffffffffffffffffffffffffffffffffffffffff16858281518110610bbe57610bbd611907565b5b602002602001015173ffffffffffffffffffffffffffffffffffffffff1614610c645760016000808681526020019081526020016000206000878481518110610c0a57610c09611907565b5b602002602001015173ffffffffffffffffffffffffffffffffffffffff1673ffffffffffffffffffffffffffffffffffffffff16815260200190815260200160002060006101000a81548160ff0219169083151502179055505b8080610c6f90611860565b915050610b8a565b50823373ffffffffffffffffffffffffffffffffffffffff167f673864e596773090d62c052fdb2ffb119cf5ae44633503838b1f77dc9ba9f99786604051610cbf91906114a5565b60405180910390a350505050565b60007f01ffc9a7000000000000000000000000000000000000000000000000000000007bffffffffffffffffffffffffffffffffffffffffffffffffffffffff1916827bffffffffffffffffffffffffffffffffffffffffffffffffffffffff1916149050919050565b6000610d4a610d45846115a6565b611581565b90508083825260208201905082856020860282011115610d6d57610d6c61196a565b5b60005b85811015610d9d5781610d838882610e59565b845260208401935060208301925050600181019050610d70565b5050509392505050565b6000610dba610db5846115d2565b611581565b90508083825260208201905082856020860282011115610ddd57610ddc61196a565b5b60005b85811015610e0d5781610df38882610f22565b845260208401935060208301925050600181019050610de0565b5050509392505050565b6000610e2a610e25846115fe565b611581565b905082815260208101848484011115610e4657610e4561196f565b5b610e518482856117bb565b509392505050565b600081359050610e6881611a2d565b92915050565b600082601f830112610e8357610e82611965565b5b8135610e93848260208601610d37565b91505092915050565b600082601f830112610eb157610eb0611965565b5b8135610ec1848260208601610da7565b91505092915050565b600081359050610ed981611a44565b92915050565b600081359050610eee81611a5b565b92915050565b600082601f830112610f0957610f08611965565b5b8135610f19848260208601610e17565b91505092915050565b600081359050610f3181611a72565b92915050565b60008060408385031215610f4e57610f4d611979565b5b6000610f5c85828601610e59565b9250506020610f6d85828601610e59565b9150509250929050565b600080600080600060a08688031215610f9357610f92611979565b5b6000610fa188828901610e59565b9550506020610fb288828901610e59565b945050604086013567ffffffffffffffff811115610fd357610fd2611974565b5b610fdf88828901610e9c565b935050606086013567ffffffffffffffff81111561100057610fff611974565b5b61100c88828901610e9c565b925050608086013567ffffffffffffffff81111561102d5761102c611974565b5b61103988828901610ef4565b9150509295509295909350565b600080600080600060a0868803121561106257611061611979565b5b600061107088828901610e59565b955050602061108188828901610e59565b945050604061109288828901610f22565b93505060606110a388828901610f22565b925050608086013567ffffffffffffffff8111156110c4576110c3611974565b5b6110d088828901610ef4565b9150509295509295909350565b600080604083850312156110f4576110f3611979565b5b600061110285828601610e59565b925050602061111385828601610eca565b9150509250929050565b6000806040838503121561113457611133611979565b5b600061114285828601610e59565b925050602061115385828601610f22565b9150509250929050565b60006020828403121561117357611172611979565b5b600082013567ffffffffffffffff81111561119157611190611974565b5b61119d84828501610e6e565b91505092915050565b600080604083850312156111bd576111bc611979565b5b600083013567ffffffffffffffff8111156111db576111da611974565b5b6111e785828601610e6e565b925050602083013567ffffffffffffffff81111561120857611207611974565b5b61121485828601610e9c565b9150509250929050565b6000806040838503121561123557611234611979565b5b600083013567ffffffffffffffff81111561125357611252611974565b5b61125f85828601610e6e565b925050602061127085828601610f22565b9150509250929050565b6000602082840312156112905761128f611979565b5b600061129e84828501610edf565b91505092915050565b6000602082840312156112bd576112bc611979565b5b60006112cb84828501610f22565b91505092915050565b60006112e08383611304565b60208301905092915050565b60006112f8838361146c565b60208301905092915050565b61130d81611747565b82525050565b61131c81611747565b82525050565b600061132d8261164f565b611337818561168a565b93506113428361162f565b8060005b8381101561137357815161135a88826112d4565b975061136583611670565b925050600181019050611346565b5085935050505092915050565b600061138b8261165a565b611395818561169b565b93506113a08361163f565b8060005b838110156113d15781516113b888826112ec565b97506113c38361167d565b9250506001810190506113a4565b5085935050505092915050565b6113e781611759565b82525050565b60006113f882611665565b61140281856116ac565b93506114128185602086016117ca565b61141b8161197e565b840191505092915050565b6000611433602a836116ac565b915061143e8261198f565b604082019050919050565b60006114566029836116ac565b9150611461826119de565b604082019050919050565b611475816117b1565b82525050565b611484816117b1565b82525050565b600060208201905061149f6000830184611313565b92915050565b600060208201905081810360008301526114bf8184611322565b905092915050565b600060208201905081810360008301526114e18184611380565b905092915050565b60006020820190506114fe60008301846113de565b92915050565b6000602082019050818103600083015261151e81846113ed565b905092915050565b6000602082019050818103600083015261153f81611426565b9050919050565b6000602082019050818103600083015261155f81611449565b9050919050565b600060208201905061157b600083018461147b565b92915050565b600061158b61159c565b9050611597828261182f565b919050565b6000604051905090565b600067ffffffffffffffff8211156115c1576115c0611936565b5b602082029050602081019050919050565b600067ffffffffffffffff8211156115ed576115ec611936565b5b602082029050602081019050919050565b600067ffffffffffffffff82111561161957611618611936565b5b6116228261197e565b9050602081019050919050565b6000819050602082019050919050565b6000819050602082019050919050565b600081519050919050565b600081519050919050565b600081519050919050565b6000602082019050919050565b6000602082019050919050565b600082825260208201905092915050565b600082825260208201905092915050565b600082825260208201905092915050565b60006116c8826117b1565b91506116d3836117b1565b9250827fffffffffffffffffffffffffffffffffffffffffffffffffffffffffffffffff03821115611708576117076118a9565b5b828201905092915050565b600061171e826117b1565b9150611729836117b1565b92508282101561173c5761173b6118a9565b5b828203905092915050565b600061175282611791565b9050919050565b60008115159050919050565b60007fffffffff0000000000000000000000000000000000000000000000000000000082169050919050565b600073ffffffffffffffffffffffffffffffffffffffff82169050919050565b6000819050919050565b82818337600083830152505050565b60005b838110156117e85780820151818401526020810190506117cd565b838111156117f7576000848401525b50505050565b6000600282049050600182168061181557607f821691505b60208210811415611829576118286118d8565b5b50919050565b6118388261197e565b810181811067ffffffffffffffff8211171561185757611856611936565b5b80604052505050565b600061186b826117b1565b91507fffffffffffffffffffffffffffffffffffffffffffffffffffffffffffffffff82141561189e5761189d6118a9565b5b600182019050919050565b7f4e487b7100000000000000000000000000000000000000000000000000000000600052601160045260246000fd5b7f4e487b7100000000000000000000000000000000000000000000000000000000600052602260045260246000fd5b7f4e487b7100000000000000000000000000000000000000000000000000000000600052603260045260246000fd5b7f4e487b7100000000000000000000000000000000000000000000000000000000600052604160045260246000fd5b600080fd5b600080fd5b600080fd5b600080fd5b600080fd5b6000601f19601f8301169050919050565b7f455243313135353a2061646472657373207a65726f206973206e6f742061207660008201527f616c6964206f776e657200000000000000000000000000000000000000000000602082015250565b7f455243313135353a206163636f756e747320616e6420696473206c656e67746860008201527f206d69736d617463680000000000000000000000000000000000000000000000602082015250565b611a3681611747565b8114611a4157600080fd5b50565b611a4d81611759565b8114611a5857600080fd5b50565b611a6481611765565b8114611a6f57600080fd5b50565b611a7b816117b1565b8114611a8657600080fd5b5056fea26469706673582212205bd3a7730dc1d10e82967945da11eba11527ceea3fc870b2a245cdd7d990259464736f6c63430008070033",
  "devdoc": {
    "kind": "dev",
    "methods": {
      "balanceOf(address,uint256)": {
        "details": "Returns the amount of tokens of token type `id` owned by `account`. Requirements: - `account` cannot be the zero address."
      },
      "balanceOfBatch(address[],uint256[])": {
        "details": "xref:ROOT:erc1155.adoc#batch-operations[Batched] version of {balanceOf}. Requirements: - `accounts` and `ids` must have the same length."
      }
    },
    "version": 1
  },
  "userdoc": {
    "kind": "user",
    "methods": {},
    "version": 1
  },
  "storageLayout": {
    "storage": [
      {
        "astId": 222,
        "contract": "contracts/SoulCertifier.sol:SoulCertifier",
        "label": "_balances",
        "offset": 0,
        "slot": "0",
        "type": "t_mapping(t_uint256,t_mapping(t_address,t_bool))"
      },
      {
        "astId": 226,
        "contract": "contracts/SoulCertifier.sol:SoulCertifier",
        "label": "_createdBy",
        "offset": 0,
        "slot": "1",
        "type": "t_mapping(t_uint256,t_address)"
      },
      {
        "astId": 228,
        "contract": "contracts/SoulCertifier.sol:SoulCertifier",
        "label": "tokenId",
        "offset": 0,
        "slot": "2",
        "type": "t_uint256"
      },
      {
        "astId": 230,
        "contract": "contracts/SoulCertifier.sol:SoulCertifier",
        "label": "_uri",
        "offset": 0,
        "slot": "3",
        "type": "t_string_storage"
      }
    ],
    "types": {
      "t_address": {
        "encoding": "inplace",
        "label": "address",
        "numberOfBytes": "20"
      },
      "t_bool": {
        "encoding": "inplace",
        "label": "bool",
        "numberOfBytes": "1"
      },
      "t_mapping(t_address,t_bool)": {
        "encoding": "mapping",
        "key": "t_address",
        "label": "mapping(address => bool)",
        "numberOfBytes": "32",
        "value": "t_bool"
      },
      "t_mapping(t_uint256,t_address)": {
        "encoding": "mapping",
        "key": "t_uint256",
        "label": "mapping(uint256 => address)",
        "numberOfBytes": "32",
        "value": "t_address"
      },
      "t_mapping(t_uint256,t_mapping(t_address,t_bool))": {
        "encoding": "mapping",
        "key": "t_uint256",
        "label": "mapping(uint256 => mapping(address => bool))",
        "numberOfBytes": "32",
        "value": "t_mapping(t_address,t_bool)"
      },
      "t_string_storage": {
        "encoding": "bytes",
        "label": "string",
        "numberOfBytes": "32"
      },
      "t_uint256": {
        "encoding": "inplace",
        "label": "uint256",
        "numberOfBytes": "32"
      }
    }
  }
}